{
  "contractName": "RealEstateMarketContract",
  "abi": [
    {
      "inputs": [],
      "payable": false,
      "stateMutability": "nonpayable",
      "type": "constructor"
    },
    {
      "constant": true,
      "inputs": [
        {
          "internalType": "uint256",
          "name": "",
          "type": "uint256"
        }
      ],
      "name": "documents",
      "outputs": [
        {
          "internalType": "uint256",
          "name": "id",
          "type": "uint256"
        },
        {
          "internalType": "bytes32",
          "name": "integrity",
          "type": "bytes32"
        }
      ],
      "payable": false,
      "stateMutability": "view",
      "type": "function"
    },
    {
      "constant": true,
      "inputs": [],
      "name": "owner",
      "outputs": [
        {
          "internalType": "address",
          "name": "",
          "type": "address"
        }
      ],
      "payable": false,
      "stateMutability": "view",
      "type": "function"
    },
    {
      "constant": true,
      "inputs": [
        {
          "internalType": "address",
          "name": "",
          "type": "address"
        },
        {
          "internalType": "uint256",
          "name": "",
          "type": "uint256"
        }
      ],
      "name": "ownerToProperties",
      "outputs": [
        {
          "internalType": "uint256",
          "name": "",
          "type": "uint256"
        }
      ],
      "payable": false,
      "stateMutability": "view",
      "type": "function"
    },
    {
      "constant": true,
      "inputs": [
        {
          "internalType": "uint256",
          "name": "",
          "type": "uint256"
        }
      ],
      "name": "properties",
      "outputs": [
        {
          "internalType": "uint256",
          "name": "price",
          "type": "uint256"
        },
        {
          "internalType": "string",
          "name": "location",
          "type": "string"
        },
        {
          "internalType": "string",
          "name": "description",
          "type": "string"
        },
        {
          "internalType": "address payable",
          "name": "ownerAddress",
          "type": "address"
        },
        {
          "internalType": "bool",
          "name": "forSale",
          "type": "bool"
        },
        {
          "internalType": "uint256",
          "name": "createdAt",
          "type": "uint256"
        }
      ],
      "payable": false,
      "stateMutability": "view",
      "type": "function"
    },
    {
      "constant": true,
      "inputs": [],
      "name": "propertiesForSale",
      "outputs": [
        {
          "internalType": "uint256",
          "name": "",
          "type": "uint256"
        }
      ],
      "payable": false,
      "stateMutability": "view",
      "type": "function"
    },
    {
      "constant": true,
      "inputs": [
        {
          "internalType": "uint256",
          "name": "",
          "type": "uint256"
        },
        {
          "internalType": "uint256",
          "name": "",
          "type": "uint256"
        }
      ],
      "name": "propertyToDocuments",
      "outputs": [
        {
          "internalType": "uint256",
          "name": "",
          "type": "uint256"
        }
      ],
      "payable": false,
      "stateMutability": "view",
      "type": "function"
    },
    {
      "constant": false,
      "inputs": [
        {
          "internalType": "uint256",
          "name": "_price",
          "type": "uint256"
        },
        {
          "internalType": "string",
          "name": "_location",
          "type": "string"
        },
        {
          "internalType": "string",
          "name": "_description",
          "type": "string"
        },
        {
          "internalType": "uint256[]",
          "name": "_documentIds",
          "type": "uint256[]"
        },
        {
          "internalType": "bytes32[]",
          "name": "_documentHashes",
          "type": "bytes32[]"
        }
      ],
      "name": "addProperty",
      "outputs": [],
      "payable": false,
      "stateMutability": "nonpayable",
      "type": "function"
    },
    {
      "constant": false,
      "inputs": [
        {
          "internalType": "uint256",
          "name": "_id",
          "type": "uint256"
        }
      ],
      "name": "buyProperty",
      "outputs": [],
      "payable": true,
      "stateMutability": "payable",
      "type": "function"
    },
    {
      "constant": false,
      "inputs": [],
      "name": "countProperties",
      "outputs": [
        {
          "internalType": "uint256",
          "name": "",
          "type": "uint256"
        }
      ],
      "payable": false,
      "stateMutability": "nonpayable",
      "type": "function"
    }
  ],
  "bytecode": "0x608060405234801561001057600080fd5b50336000806101000a81548173ffffffffffffffffffffffffffffffffffffffff021916908373ffffffffffffffffffffffffffffffffffffffff1602179055506000600581905550611044806100686000396000f3fe6080604052600436106100865760003560e01c8063c2ed2b0511610059578063c2ed2b0514610166578063e6f02b47146101bc578063e797888e14610215578063f2711a5714610284578063f7b108081461051557610086565b80634293fd3c1461008b5780636fa830a6146100b657806381cee481146100e45780638da5cb5b1461010f575b600080fd5b34801561009757600080fd5b506100a0610681565b6040518082815260200191505060405180910390f35b6100e2600480360360208110156100cc57600080fd5b8101908080359060200190929190505050610687565b005b3480156100f057600080fd5b506100f9610a5f565b6040518082815260200191505060405180910390f35b34801561011b57600080fd5b50610124610a6c565b604051808273ffffffffffffffffffffffffffffffffffffffff1673ffffffffffffffffffffffffffffffffffffffff16815260200191505060405180910390f35b34801561017257600080fd5b5061019f6004803603602081101561018957600080fd5b8101908080359060200190929190505050610a91565b604051808381526020018281526020019250505060405180910390f35b3480156101c857600080fd5b506101ff600480360360408110156101df57600080fd5b810190808035906020019092919080359060200190929190505050610ac2565b6040518082815260200191505060405180910390f35b34801561022157600080fd5b5061026e6004803603604081101561023857600080fd5b81019080803573ffffffffffffffffffffffffffffffffffffffff16906020019092919080359060200190929190505050610af0565b6040518082815260200191505060405180910390f35b34801561029057600080fd5b50610513600480360360a08110156102a757600080fd5b8101908080359060200190929190803590602001906401000000008111156102ce57600080fd5b8201836020820111156102e057600080fd5b8035906020019184600183028401116401000000008311171561030257600080fd5b91908080601f016020809104026020016040519081016040528093929190818152602001838380828437600081840152601f19601f8201169050808301925050505050505091929192908035906020019064010000000081111561036557600080fd5b82018360208201111561037757600080fd5b8035906020019184600183028401116401000000008311171561039957600080fd5b91908080601f016020809104026020016040519081016040528093929190818152602001838380828437600081840152601f19601f820116905080830192505050505050509192919290803590602001906401000000008111156103fc57600080fd5b82018360208201111561040e57600080fd5b8035906020019184602083028401116401000000008311171561043057600080fd5b919080806020026020016040519081016040528093929190818152602001838360200280828437600081840152601f19601f8201169050808301925050505050505091929192908035906020019064010000000081111561049057600080fd5b8201836020820111156104a257600080fd5b803590602001918460208302840111640100000000831117156104c457600080fd5b919080806020026020016040519081016040528093929190818152602001838360200280828437600081840152601f19601f820116905080830192505050505050509192919290505050610b1e565b005b34801561052157600080fd5b5061054e6004803603602081101561053857600080fd5b8101908080359060200190929190505050610dbc565b6040518087815260200180602001806020018673ffffffffffffffffffffffffffffffffffffffff1673ffffffffffffffffffffffffffffffffffffffff16815260200185151515158152602001848152602001838103835288818151815260200191508051906020019080838360005b838110156105da5780820151818401526020810190506105bf565b50505050905090810190601f1680156106075780820380516001836020036101000a031916815260200191505b50838103825287818151815260200191508051906020019080838360005b83811015610640578082015181840152602081019050610625565b50505050905090810190601f16801561066d5780820380516001836020036101000a031916815260200191505b509850505050505050505060405180910390f35b60055481565b600180549050811061069857600080fd5b60008090505b600360003373ffffffffffffffffffffffffffffffffffffffff1673ffffffffffffffffffffffffffffffffffffffff168152602001908152602001600020805490508110156107565781600360003373ffffffffffffffffffffffffffffffffffffffff1673ffffffffffffffffffffffffffffffffffffffff168152602001908152602001600020828154811061073357fe5b9060005260206000200154141561074957600080fd5b808060010191505061069e565b5060006001828154811061076657fe5b90600052602060002090600502019050600115158160030160149054906101000a900460ff1615151461079857600080fd5b806000015434146107a857600080fd5b8060030160009054906101000a900473ffffffffffffffffffffffffffffffffffffffff1673ffffffffffffffffffffffffffffffffffffffff166108fc349081150290604051600060405180830381858888f19350505050158015610812573d6000803e3d6000fd5b5060008090505b600360008360030160009054906101000a900473ffffffffffffffffffffffffffffffffffffffff1673ffffffffffffffffffffffffffffffffffffffff1673ffffffffffffffffffffffffffffffffffffffff168152602001908152602001600020805490508110156109915782600360008460030160009054906101000a900473ffffffffffffffffffffffffffffffffffffffff1673ffffffffffffffffffffffffffffffffffffffff1673ffffffffffffffffffffffffffffffffffffffff16815260200190815260200160002082815481106108f657fe5b9060005260206000200154141561098457600360008360030160009054906101000a900473ffffffffffffffffffffffffffffffffffffffff1673ffffffffffffffffffffffffffffffffffffffff1673ffffffffffffffffffffffffffffffffffffffff168152602001908152602001600020818154811061097557fe5b90600052602060002001600090555b8080600101915050610819565b50338160030160006101000a81548173ffffffffffffffffffffffffffffffffffffffff021916908373ffffffffffffffffffffffffffffffffffffffff16021790555060008160030160146101000a81548160ff021916908315150217905550600360003373ffffffffffffffffffffffffffffffffffffffff1673ffffffffffffffffffffffffffffffffffffffff1681526020019081526020016000208290806001815401808255809150509060018203906000526020600020016000909192909190915055505050565b6000600180549050905090565b6000809054906101000a900473ffffffffffffffffffffffffffffffffffffffff1681565b60028181548110610a9e57fe5b90600052602060002090600202016000915090508060000154908060010154905082565b60046020528160005260406000208181548110610adb57fe5b90600052602060002001600091509150505481565b60036020528160005260406000208181548110610b0957fe5b90600052602060002001600091509150505481565b8051825114610b2c57600080fd5b60016040518060c001604052808781526020018681526020018581526020013373ffffffffffffffffffffffffffffffffffffffff168152602001600115158152602001610b78610f62565b81525090806001815401808255809150509060018203906000526020600020906005020160009091929091909150600082015181600001556020820151816001019080519060200190610bcc929190610f6a565b506040820151816002019080519060200190610be9929190610f6a565b5060608201518160030160006101000a81548173ffffffffffffffffffffffffffffffffffffffff021916908373ffffffffffffffffffffffffffffffffffffffff16021790555060808201518160030160146101000a81548160ff02191690831515021790555060a08201518160040155505050600060018080549050039050600360003373ffffffffffffffffffffffffffffffffffffffff1673ffffffffffffffffffffffffffffffffffffffff16815260200190815260200160002081908060018154018082558091505090600182039060005260206000200160009091929091909150555060008090505b8351811015610db35760026040518060400160405280868481518110610cfb57fe5b60200260200101518152602001858481518110610d1457fe5b60200260200101518152509080600181540180825580915050906001820390600052602060002090600202016000909192909190915060008201518160000155602082015181600101555050506004600083815260200190815260200160002060016002805490500390806001815401808255809150509060018203906000526020600020016000909192909190915055508080600101915050610cd9565b50505050505050565b60018181548110610dc957fe5b9060005260206000209060050201600091509050806000015490806001018054600181600116156101000203166002900480601f016020809104026020016040519081016040528092919081815260200182805460018160011615610100020316600290048015610e7b5780601f10610e5057610100808354040283529160200191610e7b565b820191906000526020600020905b815481529060010190602001808311610e5e57829003601f168201915b505050505090806002018054600181600116156101000203166002900480601f016020809104026020016040519081016040528092919081815260200182805460018160011615610100020316600290048015610f195780601f10610eee57610100808354040283529160200191610f19565b820191906000526020600020905b815481529060010190602001808311610efc57829003601f168201915b5050505050908060030160009054906101000a900473ffffffffffffffffffffffffffffffffffffffff16908060030160149054906101000a900460ff16908060040154905086565b600042905090565b828054600181600116156101000203166002900490600052602060002090601f016020900481019282601f10610fab57805160ff1916838001178555610fd9565b82800160010185558215610fd9579182015b82811115610fd8578251825591602001919060010190610fbd565b5b509050610fe69190610fea565b5090565b61100c91905b80821115611008576000816000905550600101610ff0565b5090565b9056fea265627a7a723158200db750d43a16ab85a313d8430283480919e1ea749d3e993b3066ee2446ce6a1964736f6c63430005100032",
  "source": "// SPDX-License-Identifier: MIT\npragma solidity >=0.4.21 <0.7.0;\n\ncontract RealEstateMarketContract {\n\n  struct Document {\n    uint id;\n    bytes32 integrity;\n  }\n  \n  struct Property {\n    uint price;\n    string location;\n    string description;\n    address payable ownerAddress;\n    bool forSale;\n    uint createdAt;\n  }\n\n  address public owner;\n\n  Property [] public properties;\n  Document[] public documents;\n  \n  mapping (address => uint[]) public ownerToProperties;\n  mapping (uint => uint[]) public propertyToDocuments;\n  \n  uint public propertiesForSale;\n\n  constructor () public {\n    owner = msg.sender;\n    propertiesForSale = 0;\n  }\n\n  function time() view internal returns (uint){\n      return now;\n  }\n\n  function addProperty (\n    uint _price, \n    string memory _location,\n    string memory _description,\n    uint[] memory _documentIds,\n    bytes32[] memory _documentHashes\n    ) public {\n\n      require(_documentIds.length == _documentHashes.length);\n\n      properties.push(\n        Property(\n          _price, \n          _location, \n          _description, \n          msg.sender, \n          true,\n          time()\n        )\n      );\n      \n      uint propertyId = properties.length - 1;\n      ownerToProperties[msg.sender].push(propertyId);\n\n      for (uint i=0; i< _documentIds.length; i++) {\n        documents.push(\n          Document(_documentIds[i], _documentHashes[i])\n        );\n        propertyToDocuments[propertyId].push(documents.length - 1);\n      }\n  }\n  \n  function buyProperty (uint _id) external payable {\n\n    require(_id < properties.length);\n\n    for (uint i = 0; i < ownerToProperties[msg.sender].length; i ++){\n      require(ownerToProperties[msg.sender][i] != _id);\n    }\n\n    Property storage _p = properties[_id];\n\n    require(_p.forSale == true);\n\n    require(msg.value == _p.price);\n\n    _p.ownerAddress.transfer(msg.value);\n\n    for (uint i = 0; i < ownerToProperties[_p.ownerAddress].length; i ++){\n      if (ownerToProperties[_p.ownerAddress][i] == _id){\n        delete ownerToProperties[_p.ownerAddress][i];\n      }\n    }\n\n    _p.ownerAddress = msg.sender;\n    _p.forSale = false;\n\n    ownerToProperties[msg.sender].push(_id);\n  }\n\n  function countProperties() public returns (uint) {\n\n    return properties.length;\n  }\n\n  /*function getPropertiesData () external view returns (Property [100] memory){\n    \n    Property[100] memory _p;\n\n    return _p;\n  }\n\n  function getPropertyData (uint _id) external view \n    returns (\n      string memory description, \n      string memory location,\n      uint price,\n      address ownerAddress,\n      bool forSale,\n      uint createdAt\n    ) {\n\n    Property storage p = properties[_id];\n    \n    return (\n      p.description, \n      p.location,\n      p.price,\n      p.ownerAddress,\n      p.forSale,\n      p.createdAt\n    );\n  }*/\n}\n",
  "sourcePath": "C:/Users/mathi/project/ZizouNCo/contracts/RealEstateMarketContract.sol",
  "compiler": {
    "name": "solc",
    "version": "0.5.16+commit.9c3226ce.Emscripten.clang"
  },
  "schemaVersion": "3.3.2",
  "updatedAt": "2021-01-10T18:11:27.177Z",
  "networkType": "ethereum",
  "devdoc": {
    "methods": {}
  },
  "userdoc": {
    "methods": {}
  }
}