{
  "contractName": "RealEstateMarketContract",
  "abi": [
    {
      "inputs": [],
      "payable": false,
      "stateMutability": "nonpayable",
      "type": "constructor"
    },
    {
      "constant": true,
      "inputs": [
        {
          "internalType": "uint256",
          "name": "",
          "type": "uint256"
        }
      ],
      "name": "documents",
      "outputs": [
        {
          "internalType": "uint256",
          "name": "id",
          "type": "uint256"
        },
        {
          "internalType": "bytes32",
          "name": "integrity",
          "type": "bytes32"
        }
      ],
      "payable": false,
      "stateMutability": "view",
      "type": "function"
    },
    {
      "constant": true,
      "inputs": [],
      "name": "owner",
      "outputs": [
        {
          "internalType": "address",
          "name": "",
          "type": "address"
        }
      ],
      "payable": false,
      "stateMutability": "view",
      "type": "function"
    },
    {
      "constant": true,
      "inputs": [
        {
          "internalType": "address",
          "name": "",
          "type": "address"
        },
        {
          "internalType": "uint256",
          "name": "",
          "type": "uint256"
        }
      ],
      "name": "ownerToProperties",
      "outputs": [
        {
          "internalType": "uint256",
          "name": "",
          "type": "uint256"
        }
      ],
      "payable": false,
      "stateMutability": "view",
      "type": "function"
    },
    {
      "constant": true,
      "inputs": [
        {
          "internalType": "uint256",
          "name": "",
          "type": "uint256"
        }
      ],
      "name": "properties",
      "outputs": [
        {
          "internalType": "uint256",
          "name": "price",
          "type": "uint256"
        },
        {
          "internalType": "string",
          "name": "location",
          "type": "string"
        },
        {
          "internalType": "string",
          "name": "description",
          "type": "string"
        },
        {
          "internalType": "address payable",
          "name": "ownerAddress",
          "type": "address"
        },
        {
          "internalType": "bool",
          "name": "forSale",
          "type": "bool"
        },
        {
          "internalType": "uint256",
          "name": "createdAt",
          "type": "uint256"
        }
      ],
      "payable": false,
      "stateMutability": "view",
      "type": "function"
    },
    {
      "constant": true,
      "inputs": [],
      "name": "propertiesForSale",
      "outputs": [
        {
          "internalType": "uint256",
          "name": "",
          "type": "uint256"
        }
      ],
      "payable": false,
      "stateMutability": "view",
      "type": "function"
    },
    {
      "constant": true,
      "inputs": [
        {
          "internalType": "uint256",
          "name": "",
          "type": "uint256"
        },
        {
          "internalType": "uint256",
          "name": "",
          "type": "uint256"
        }
      ],
      "name": "propertyToDocuments",
      "outputs": [
        {
          "internalType": "uint256",
          "name": "",
          "type": "uint256"
        }
      ],
      "payable": false,
      "stateMutability": "view",
      "type": "function"
    },
    {
      "constant": false,
      "inputs": [
        {
          "internalType": "uint256",
          "name": "_price",
          "type": "uint256"
        },
        {
          "internalType": "string",
          "name": "_location",
          "type": "string"
        },
        {
          "internalType": "string",
          "name": "_description",
          "type": "string"
        },
        {
          "internalType": "uint256[]",
          "name": "_documentIds",
          "type": "uint256[]"
        },
        {
          "internalType": "bytes32[]",
          "name": "_documentHashes",
          "type": "bytes32[]"
        }
      ],
      "name": "addProperty",
      "outputs": [],
      "payable": false,
      "stateMutability": "nonpayable",
      "type": "function"
    },
    {
      "constant": false,
      "inputs": [
        {
          "internalType": "uint256",
          "name": "_id",
          "type": "uint256"
        }
      ],
      "name": "buyProperty",
      "outputs": [],
      "payable": true,
      "stateMutability": "payable",
      "type": "function"
    }
  ],
  "bytecode": "0x608060405234801561001057600080fd5b50336000806101000a81548173ffffffffffffffffffffffffffffffffffffffff021916908373ffffffffffffffffffffffffffffffffffffffff1602179055506000600581905550611001806100686000396000f3fe60806040526004361061007b5760003560e01c8063e6f02b471161004e578063e6f02b4714610186578063e797888e146101df578063f2711a571461024e578063f7b10808146104df5761007b565b80634293fd3c146100805780636fa830a6146100ab5780638da5cb5b146100d9578063c2ed2b0514610130575b600080fd5b34801561008c57600080fd5b5061009561064b565b6040518082815260200191505060405180910390f35b6100d7600480360360208110156100c157600080fd5b8101908080359060200190929190505050610651565b005b3480156100e557600080fd5b506100ee610a29565b604051808273ffffffffffffffffffffffffffffffffffffffff1673ffffffffffffffffffffffffffffffffffffffff16815260200191505060405180910390f35b34801561013c57600080fd5b506101696004803603602081101561015357600080fd5b8101908080359060200190929190505050610a4e565b604051808381526020018281526020019250505060405180910390f35b34801561019257600080fd5b506101c9600480360360408110156101a957600080fd5b810190808035906020019092919080359060200190929190505050610a7f565b6040518082815260200191505060405180910390f35b3480156101eb57600080fd5b506102386004803603604081101561020257600080fd5b81019080803573ffffffffffffffffffffffffffffffffffffffff16906020019092919080359060200190929190505050610aad565b6040518082815260200191505060405180910390f35b34801561025a57600080fd5b506104dd600480360360a081101561027157600080fd5b81019080803590602001909291908035906020019064010000000081111561029857600080fd5b8201836020820111156102aa57600080fd5b803590602001918460018302840111640100000000831117156102cc57600080fd5b91908080601f016020809104026020016040519081016040528093929190818152602001838380828437600081840152601f19601f8201169050808301925050505050505091929192908035906020019064010000000081111561032f57600080fd5b82018360208201111561034157600080fd5b8035906020019184600183028401116401000000008311171561036357600080fd5b91908080601f016020809104026020016040519081016040528093929190818152602001838380828437600081840152601f19601f820116905080830192505050505050509192919290803590602001906401000000008111156103c657600080fd5b8201836020820111156103d857600080fd5b803590602001918460208302840111640100000000831117156103fa57600080fd5b919080806020026020016040519081016040528093929190818152602001838360200280828437600081840152601f19601f8201169050808301925050505050505091929192908035906020019064010000000081111561045a57600080fd5b82018360208201111561046c57600080fd5b8035906020019184602083028401116401000000008311171561048e57600080fd5b919080806020026020016040519081016040528093929190818152602001838360200280828437600081840152601f19601f820116905080830192505050505050509192919290505050610adb565b005b3480156104eb57600080fd5b506105186004803603602081101561050257600080fd5b8101908080359060200190929190505050610d79565b6040518087815260200180602001806020018673ffffffffffffffffffffffffffffffffffffffff1673ffffffffffffffffffffffffffffffffffffffff16815260200185151515158152602001848152602001838103835288818151815260200191508051906020019080838360005b838110156105a4578082015181840152602081019050610589565b50505050905090810190601f1680156105d15780820380516001836020036101000a031916815260200191505b50838103825287818151815260200191508051906020019080838360005b8381101561060a5780820151818401526020810190506105ef565b50505050905090810190601f1680156106375780820380516001836020036101000a031916815260200191505b509850505050505050505060405180910390f35b60055481565b600180549050811061066257600080fd5b60008090505b600360003373ffffffffffffffffffffffffffffffffffffffff1673ffffffffffffffffffffffffffffffffffffffff168152602001908152602001600020805490508110156107205781600360003373ffffffffffffffffffffffffffffffffffffffff1673ffffffffffffffffffffffffffffffffffffffff16815260200190815260200160002082815481106106fd57fe5b9060005260206000200154141561071357600080fd5b8080600101915050610668565b5060006001828154811061073057fe5b90600052602060002090600502019050600115158160030160149054906101000a900460ff1615151461076257600080fd5b8060000154341461077257600080fd5b8060030160009054906101000a900473ffffffffffffffffffffffffffffffffffffffff1673ffffffffffffffffffffffffffffffffffffffff166108fc349081150290604051600060405180830381858888f193505050501580156107dc573d6000803e3d6000fd5b5060008090505b600360008360030160009054906101000a900473ffffffffffffffffffffffffffffffffffffffff1673ffffffffffffffffffffffffffffffffffffffff1673ffffffffffffffffffffffffffffffffffffffff1681526020019081526020016000208054905081101561095b5782600360008460030160009054906101000a900473ffffffffffffffffffffffffffffffffffffffff1673ffffffffffffffffffffffffffffffffffffffff1673ffffffffffffffffffffffffffffffffffffffff16815260200190815260200160002082815481106108c057fe5b9060005260206000200154141561094e57600360008360030160009054906101000a900473ffffffffffffffffffffffffffffffffffffffff1673ffffffffffffffffffffffffffffffffffffffff1673ffffffffffffffffffffffffffffffffffffffff168152602001908152602001600020818154811061093f57fe5b90600052602060002001600090555b80806001019150506107e3565b50338160030160006101000a81548173ffffffffffffffffffffffffffffffffffffffff021916908373ffffffffffffffffffffffffffffffffffffffff16021790555060008160030160146101000a81548160ff021916908315150217905550600360003373ffffffffffffffffffffffffffffffffffffffff1673ffffffffffffffffffffffffffffffffffffffff1681526020019081526020016000208290806001815401808255809150509060018203906000526020600020016000909192909190915055505050565b6000809054906101000a900473ffffffffffffffffffffffffffffffffffffffff1681565b60028181548110610a5b57fe5b90600052602060002090600202016000915090508060000154908060010154905082565b60046020528160005260406000208181548110610a9857fe5b90600052602060002001600091509150505481565b60036020528160005260406000208181548110610ac657fe5b90600052602060002001600091509150505481565b8051825114610ae957600080fd5b60016040518060c001604052808781526020018681526020018581526020013373ffffffffffffffffffffffffffffffffffffffff168152602001600115158152602001610b35610f1f565b81525090806001815401808255809150509060018203906000526020600020906005020160009091929091909150600082015181600001556020820151816001019080519060200190610b89929190610f27565b506040820151816002019080519060200190610ba6929190610f27565b5060608201518160030160006101000a81548173ffffffffffffffffffffffffffffffffffffffff021916908373ffffffffffffffffffffffffffffffffffffffff16021790555060808201518160030160146101000a81548160ff02191690831515021790555060a08201518160040155505050600060018080549050039050600360003373ffffffffffffffffffffffffffffffffffffffff1673ffffffffffffffffffffffffffffffffffffffff16815260200190815260200160002081908060018154018082558091505090600182039060005260206000200160009091929091909150555060008090505b8351811015610d705760026040518060400160405280868481518110610cb857fe5b60200260200101518152602001858481518110610cd157fe5b60200260200101518152509080600181540180825580915050906001820390600052602060002090600202016000909192909190915060008201518160000155602082015181600101555050506004600083815260200190815260200160002060016002805490500390806001815401808255809150509060018203906000526020600020016000909192909190915055508080600101915050610c96565b50505050505050565b60018181548110610d8657fe5b9060005260206000209060050201600091509050806000015490806001018054600181600116156101000203166002900480601f016020809104026020016040519081016040528092919081815260200182805460018160011615610100020316600290048015610e385780601f10610e0d57610100808354040283529160200191610e38565b820191906000526020600020905b815481529060010190602001808311610e1b57829003601f168201915b505050505090806002018054600181600116156101000203166002900480601f016020809104026020016040519081016040528092919081815260200182805460018160011615610100020316600290048015610ed65780601f10610eab57610100808354040283529160200191610ed6565b820191906000526020600020905b815481529060010190602001808311610eb957829003601f168201915b5050505050908060030160009054906101000a900473ffffffffffffffffffffffffffffffffffffffff16908060030160149054906101000a900460ff16908060040154905086565b600042905090565b828054600181600116156101000203166002900490600052602060002090601f016020900481019282601f10610f6857805160ff1916838001178555610f96565b82800160010185558215610f96579182015b82811115610f95578251825591602001919060010190610f7a565b5b509050610fa39190610fa7565b5090565b610fc991905b80821115610fc5576000816000905550600101610fad565b5090565b9056fea265627a7a72315820f5bf2128220d2df16fb493e3b1aaf4f6f02de7bd9f8197e823532449444d6ca864736f6c63430005100032",
  "source": "// SPDX-License-Identifier: MIT\npragma solidity >=0.4.21 <0.7.0;\n\ncontract RealEstateMarketContract {\n\n  struct Document {\n    uint id;\n    bytes32 integrity;\n  }\n  \n  struct Property {\n    uint price;\n    string location;\n    string description;\n    address payable ownerAddress;\n    bool forSale;\n    uint createdAt;\n  }\n\n  address public owner;\n\n  Property [] public properties;\n  Document[] public documents;\n  \n  mapping (address => uint[]) public ownerToProperties;\n  mapping (uint => uint[]) public propertyToDocuments;\n  \n  uint public propertiesForSale;\n\n  constructor () public {\n    owner = msg.sender;\n    propertiesForSale = 0;\n  }\n\n  function time() view internal returns (uint){\n      return now;\n  }\n\n  function addProperty (\n    uint _price, \n    string memory _location,\n    string memory _description,\n    uint[] memory _documentIds,\n    bytes32[] memory _documentHashes\n    ) public {\n\n      require(_documentIds.length == _documentHashes.length);\n\n      properties.push(\n        Property(\n          _price, \n          _location, \n          _description, \n          msg.sender, \n          true,\n          time()\n        )\n      );\n      \n      uint propertyId = properties.length - 1;\n      ownerToProperties[msg.sender].push(propertyId);\n\n      for (uint i=0; i< _documentIds.length; i++) {\n        documents.push(\n          Document(_documentIds[i], _documentHashes[i])\n        );\n        propertyToDocuments[propertyId].push(documents.length - 1);\n      }\n  }\n  \n  function buyProperty (uint _id) public payable {\n\n    require(_id < properties.length);\n\n    for (uint i = 0; i < ownerToProperties[msg.sender].length; i ++){\n      require(ownerToProperties[msg.sender][i] != _id);\n    }\n\n    Property storage _p = properties[_id];\n\n    require(_p.forSale == true);\n\n    require(msg.value == _p.price);\n\n    _p.ownerAddress.transfer(msg.value);\n\n    for (uint i = 0; i < ownerToProperties[_p.ownerAddress].length; i ++){\n      if (ownerToProperties[_p.ownerAddress][i] == _id){\n        delete ownerToProperties[_p.ownerAddress][i];\n      }\n    }\n\n    _p.ownerAddress = msg.sender;\n    _p.forSale = false;\n\n    ownerToProperties[msg.sender].push(_id);\n  }\n\n  /*function getPropertiesData () external view returns (Property [100] memory){\n    \n    Property[100] memory _p;\n\n    return _p;\n  }\n\n  function getPropertyData (uint _id) external view \n    returns (\n      string memory description, \n      string memory location,\n      uint price,\n      address ownerAddress,\n      bool forSale,\n      uint createdAt\n    ) {\n\n    Property storage p = properties[_id];\n    \n    return (\n      p.description, \n      p.location,\n      p.price,\n      p.ownerAddress,\n      p.forSale,\n      p.createdAt\n    );\n  }*/\n}\n",
  "sourcePath": "C:/Users/mathi/project/ZizouNCo/contracts/RealEstateMarketContract.sol",
  "compiler": {
    "name": "solc",
    "version": "0.5.16+commit.9c3226ce.Emscripten.clang"
  },
  "schemaVersion": "3.3.2",
  "updatedAt": "2020-12-09T11:05:20.916Z",
  "networkType": "ethereum",
  "devdoc": {
    "methods": {}
  },
  "userdoc": {
    "methods": {}
  }
}