{
  "contractName": "RealEstateMarket",
  "abi": [
    {
      "inputs": [],
      "payable": false,
      "stateMutability": "nonpayable",
      "type": "constructor"
    },
    {
      "constant": true,
      "inputs": [
        {
          "internalType": "uint256",
          "name": "",
          "type": "uint256"
        }
      ],
      "name": "documents",
      "outputs": [
        {
          "internalType": "string",
          "name": "identifier",
          "type": "string"
        },
        {
          "internalType": "bytes32",
          "name": "integrity",
          "type": "bytes32"
        }
      ],
      "payable": false,
      "stateMutability": "view",
      "type": "function"
    },
    {
      "constant": true,
      "inputs": [],
      "name": "owner",
      "outputs": [
        {
          "internalType": "address",
          "name": "",
          "type": "address"
        }
      ],
      "payable": false,
      "stateMutability": "view",
      "type": "function"
    },
    {
      "constant": true,
      "inputs": [
        {
          "internalType": "address",
          "name": "",
          "type": "address"
        },
        {
          "internalType": "uint256",
          "name": "",
          "type": "uint256"
        }
      ],
      "name": "ownerToProperties",
      "outputs": [
        {
          "internalType": "uint256",
          "name": "",
          "type": "uint256"
        }
      ],
      "payable": false,
      "stateMutability": "view",
      "type": "function"
    },
    {
      "constant": true,
      "inputs": [
        {
          "internalType": "uint256",
          "name": "",
          "type": "uint256"
        }
      ],
      "name": "properties",
      "outputs": [
        {
          "internalType": "uint256",
          "name": "price",
          "type": "uint256"
        },
        {
          "internalType": "string",
          "name": "location",
          "type": "string"
        },
        {
          "internalType": "string",
          "name": "description",
          "type": "string"
        },
        {
          "internalType": "address payable",
          "name": "ownerAddress",
          "type": "address"
        },
        {
          "internalType": "bool",
          "name": "forSale",
          "type": "bool"
        },
        {
          "internalType": "uint256",
          "name": "createdAt",
          "type": "uint256"
        }
      ],
      "payable": false,
      "stateMutability": "view",
      "type": "function"
    },
    {
      "constant": true,
      "inputs": [],
      "name": "propertiesForSale",
      "outputs": [
        {
          "internalType": "uint256",
          "name": "",
          "type": "uint256"
        }
      ],
      "payable": false,
      "stateMutability": "view",
      "type": "function"
    },
    {
      "constant": true,
      "inputs": [
        {
          "internalType": "uint256",
          "name": "",
          "type": "uint256"
        },
        {
          "internalType": "uint256",
          "name": "",
          "type": "uint256"
        }
      ],
      "name": "propertyToDocuments",
      "outputs": [
        {
          "internalType": "uint256",
          "name": "",
          "type": "uint256"
        }
      ],
      "payable": false,
      "stateMutability": "view",
      "type": "function"
    },
    {
      "constant": false,
      "inputs": [
        {
          "internalType": "uint256",
          "name": "_price",
          "type": "uint256"
        },
        {
          "internalType": "string",
          "name": "_location",
          "type": "string"
        },
        {
          "internalType": "string",
          "name": "_description",
          "type": "string"
        },
        {
          "internalType": "string[]",
          "name": "_documentIds",
          "type": "string[]"
        },
        {
          "internalType": "bytes32[]",
          "name": "_documentHashes",
          "type": "bytes32[]"
        }
      ],
      "name": "addProperty",
      "outputs": [],
      "payable": false,
      "stateMutability": "nonpayable",
      "type": "function"
    },
    {
      "constant": false,
      "inputs": [
        {
          "internalType": "uint256",
          "name": "_id",
          "type": "uint256"
        }
      ],
      "name": "buyProperty",
      "outputs": [],
      "payable": true,
      "stateMutability": "payable",
      "type": "function"
    },
    {
      "constant": true,
      "inputs": [
        {
          "internalType": "uint256",
          "name": "_page",
          "type": "uint256"
        }
      ],
      "name": "paginateProperties",
      "outputs": [
        {
          "components": [
            {
              "internalType": "uint256",
              "name": "price",
              "type": "uint256"
            },
            {
              "internalType": "string",
              "name": "location",
              "type": "string"
            },
            {
              "internalType": "string",
              "name": "description",
              "type": "string"
            },
            {
              "internalType": "address payable",
              "name": "ownerAddress",
              "type": "address"
            },
            {
              "internalType": "bool",
              "name": "forSale",
              "type": "bool"
            },
            {
              "internalType": "uint256",
              "name": "createdAt",
              "type": "uint256"
            }
          ],
          "internalType": "struct RealEstateMarket.Property[25]",
          "name": "items",
          "type": "tuple[25]"
        },
        {
          "internalType": "uint256",
          "name": "itemsCount",
          "type": "uint256"
        },
        {
          "internalType": "uint256",
          "name": "itemsTotal",
          "type": "uint256"
        }
      ],
      "payable": false,
      "stateMutability": "view",
      "type": "function"
    }
  ],
  "bytecode": "0x608060405234801561001057600080fd5b50336000806101000a81548173ffffffffffffffffffffffffffffffffffffffff021916908373ffffffffffffffffffffffffffffffffffffffff160217905550600060058190555061184e806100686000396000f3fe6080604052600436106100865760003560e01c8063c2ed2b0511610059578063c2ed2b0514610126578063dd51f22214610164578063e6f02b47146101a3578063e797888e146101e0578063f7b108081461021d57610086565b80634293fd3c1461008b5780636fa830a6146100b65780638da5cb5b146100d2578063a1088759146100fd575b600080fd5b34801561009757600080fd5b506100a061025f565b6040516100ad9190611556565b60405180910390f35b6100d060048036036100cb919081019061118e565b610265565b005b3480156100de57600080fd5b506100e761063d565b6040516100f491906114cd565b60405180910390f35b34801561010957600080fd5b50610124600480360361011f91908101906111b7565b610662565b005b34801561013257600080fd5b5061014d6004803603610148919081019061118e565b610913565b60405161015b929190611526565b60405180910390f35b34801561017057600080fd5b5061018b6004803603610186919081019061118e565b6109dc565b60405161019a939291906114e8565b60405180910390f35b3480156101af57600080fd5b506101ca60048036036101c5919081019061128e565b610c49565b6040516101d79190611556565b60405180910390f35b3480156101ec57600080fd5b5061020760048036036102029190810190611152565b610c77565b6040516102149190611556565b60405180910390f35b34801561022957600080fd5b50610244600480360361023f919081019061118e565b610ca5565b60405161025696959493929190611571565b60405180910390f35b60055481565b600180549050811061027657600080fd5b60008090505b600360003373ffffffffffffffffffffffffffffffffffffffff1673ffffffffffffffffffffffffffffffffffffffff168152602001908152602001600020805490508110156103345781600360003373ffffffffffffffffffffffffffffffffffffffff1673ffffffffffffffffffffffffffffffffffffffff168152602001908152602001600020828154811061031157fe5b9060005260206000200154141561032757600080fd5b808060010191505061027c565b5060006001828154811061034457fe5b90600052602060002090600502019050600115158160030160149054906101000a900460ff1615151461037657600080fd5b8060000154341461038657600080fd5b8060030160009054906101000a900473ffffffffffffffffffffffffffffffffffffffff1673ffffffffffffffffffffffffffffffffffffffff166108fc349081150290604051600060405180830381858888f193505050501580156103f0573d6000803e3d6000fd5b5060008090505b600360008360030160009054906101000a900473ffffffffffffffffffffffffffffffffffffffff1673ffffffffffffffffffffffffffffffffffffffff1673ffffffffffffffffffffffffffffffffffffffff1681526020019081526020016000208054905081101561056f5782600360008460030160009054906101000a900473ffffffffffffffffffffffffffffffffffffffff1673ffffffffffffffffffffffffffffffffffffffff1673ffffffffffffffffffffffffffffffffffffffff16815260200190815260200160002082815481106104d457fe5b9060005260206000200154141561056257600360008360030160009054906101000a900473ffffffffffffffffffffffffffffffffffffffff1673ffffffffffffffffffffffffffffffffffffffff1673ffffffffffffffffffffffffffffffffffffffff168152602001908152602001600020818154811061055357fe5b90600052602060002001600090555b80806001019150506103f7565b50338160030160006101000a81548173ffffffffffffffffffffffffffffffffffffffff021916908373ffffffffffffffffffffffffffffffffffffffff16021790555060008160030160146101000a81548160ff021916908315150217905550600360003373ffffffffffffffffffffffffffffffffffffffff1673ffffffffffffffffffffffffffffffffffffffff1681526020019081526020016000208290806001815401808255809150509060018203906000526020600020016000909192909190915055505050565b6000809054906101000a900473ffffffffffffffffffffffffffffffffffffffff1681565b805182511461067057600080fd5b60016040518060c001604052808781526020018681526020018581526020013373ffffffffffffffffffffffffffffffffffffffff1681526020016001151581526020016106bc610e4b565b81525090806001815401808255809150509060018203906000526020600020906005020160009091929091909150600082015181600001556020820151816001019080519060200190610710929190610e53565b50604082015181600201908051906020019061072d929190610e53565b5060608201518160030160006101000a81548173ffffffffffffffffffffffffffffffffffffffff021916908373ffffffffffffffffffffffffffffffffffffffff16021790555060808201518160030160146101000a81548160ff02191690831515021790555060a08201518160040155505050600060018080549050039050600360003373ffffffffffffffffffffffffffffffffffffffff1673ffffffffffffffffffffffffffffffffffffffff16815260200190815260200160002081908060018154018082558091505090600182039060005260206000200160009091929091909150555060008090505b835181101561090a576002604051806040016040528086848151811061083f57fe5b6020026020010151815260200185848151811061085857fe5b60200260200101518152509080600181540180825580915050906001820390600052602060002090600202016000909192909190915060008201518160000190805190602001906108aa929190610e53565b5060208201518160010155505050600460008381526020019081526020016000206001600280549050039080600181540180825580915050906001820390600052602060002001600090919290919091505550808060010191505061081d565b50505050505050565b6002818154811061092057fe5b9060005260206000209060020201600091509050806000018054600181600116156101000203166002900480601f0160208091040260200160405190810160405280929190818152602001828054600181600116156101000203166002900480156109cc5780601f106109a1576101008083540402835291602001916109cc565b820191906000526020600020905b8154815290600101906020018083116109af57829003601f168201915b5050505050908060010154905082565b6109e4610ed3565b6000806109ef610ed3565b600080905060006019870290505b60198702601901811015610c3157600180549050811015610c245760018181548110610a2557fe5b90600052602060002090600502016040518060c001604052908160008201548152602001600182018054600181600116156101000203166002900480601f016020809104026020016040519081016040528092919081815260200182805460018160011615610100020316600290048015610ae15780601f10610ab657610100808354040283529160200191610ae1565b820191906000526020600020905b815481529060010190602001808311610ac457829003601f168201915b50505050508152602001600282018054600181600116156101000203166002900480601f016020809104026020016040519081016040528092919081815260200182805460018160011615610100020316600290048015610b835780601f10610b5857610100808354040283529160200191610b83565b820191906000526020600020905b815481529060010190602001808311610b6657829003601f168201915b505050505081526020016003820160009054906101000a900473ffffffffffffffffffffffffffffffffffffffff1673ffffffffffffffffffffffffffffffffffffffff1673ffffffffffffffffffffffffffffffffffffffff1681526020016003820160149054906101000a900460ff16151515158152602001600482015481525050838360198110610c1357fe5b602002018190525081806001019250505b80806001019150506109fd565b50818160018054905094509450945050509193909250565b60046020528160005260406000208181548110610c6257fe5b90600052602060002001600091509150505481565b60036020528160005260406000208181548110610c9057fe5b90600052602060002001600091509150505481565b60018181548110610cb257fe5b9060005260206000209060050201600091509050806000015490806001018054600181600116156101000203166002900480601f016020809104026020016040519081016040528092919081815260200182805460018160011615610100020316600290048015610d645780601f10610d3957610100808354040283529160200191610d64565b820191906000526020600020905b815481529060010190602001808311610d4757829003601f168201915b505050505090806002018054600181600116156101000203166002900480601f016020809104026020016040519081016040528092919081815260200182805460018160011615610100020316600290048015610e025780601f10610dd757610100808354040283529160200191610e02565b820191906000526020600020905b815481529060010190602001808311610de557829003601f168201915b5050505050908060030160009054906101000a900473ffffffffffffffffffffffffffffffffffffffff16908060030160149054906101000a900460ff16908060040154905086565b600042905090565b828054600181600116156101000203166002900490600052602060002090601f016020900481019282601f10610e9457805160ff1916838001178555610ec2565b82800160010185558215610ec2579182015b82811115610ec1578251825591602001919060010190610ea6565b5b509050610ecf9190610f01565b5090565b6040518061032001604052806019905b610eeb610f26565b815260200190600190039081610ee35790505090565b610f2391905b80821115610f1f576000816000905550600101610f07565b5090565b90565b6040518060c00160405280600081526020016060815260200160608152602001600073ffffffffffffffffffffffffffffffffffffffff168152602001600015158152602001600081525090565b600081359050610f83816117c6565b92915050565b600082601f830112610f9a57600080fd5b8135610fad610fa88261160d565b6115e0565b91508181835260208401935060208101905083856020840282011115610fd257600080fd5b60005b838110156110025781610fe88882611080565b845260208401935060208301925050600181019050610fd5565b5050505092915050565b600082601f83011261101d57600080fd5b813561103061102b82611635565b6115e0565b9150818183526020840193506020810190508360005b83811015611076578135860161105c8882611095565b845260208401935060208301925050600181019050611046565b5050505092915050565b60008135905061108f816117dd565b92915050565b600082601f8301126110a657600080fd5b81356110b96110b48261165d565b6115e0565b915080825260208301602083018583830111156110d557600080fd5b6110e0838284611773565b50505092915050565b600082601f8301126110fa57600080fd5b813561110d61110882611689565b6115e0565b9150808252602083016020830185838301111561112957600080fd5b611134838284611773565b50505092915050565b60008135905061114c816117f4565b92915050565b6000806040838503121561116557600080fd5b600061117385828601610f74565b92505060206111848582860161113d565b9150509250929050565b6000602082840312156111a057600080fd5b60006111ae8482850161113d565b91505092915050565b600080600080600060a086880312156111cf57600080fd5b60006111dd8882890161113d565b955050602086013567ffffffffffffffff8111156111fa57600080fd5b611206888289016110e9565b945050604086013567ffffffffffffffff81111561122357600080fd5b61122f888289016110e9565b935050606086013567ffffffffffffffff81111561124c57600080fd5b6112588882890161100c565b925050608086013567ffffffffffffffff81111561127557600080fd5b61128188828901610f89565b9150509295509295909350565b600080604083850312156112a157600080fd5b60006112af8582860161113d565b92505060206112c08582860161113d565b9150509250929050565b60006112d6838361141f565b905092915050565b6112e781611721565b82525050565b6112f681611721565b82525050565b6113058161170f565b82525050565b6000611316826116bf565b61132081856116e2565b935083602082028501611332856116b5565b8060005b8581101561136e578484038952815161134f85826112ca565b945061135a836116d5565b925060208a01995050600181019050611336565b50829750879550505050505092915050565b61138981611733565b82525050565b61139881611733565b82525050565b6113a78161173f565b82525050565b60006113b8826116ca565b6113c281856116ed565b93506113d2818560208601611782565b6113db816117b5565b840191505092915050565b60006113f1826116ca565b6113fb81856116fe565b935061140b818560208601611782565b611414816117b5565b840191505092915050565b600060c08301600083015161143760008601826114af565b506020830151848203602086015261144f82826113ad565b9150506040830151848203604086015261146982826113ad565b915050606083015161147e60608601826112de565b5060808301516114916080860182611380565b5060a08301516114a460a08601826114af565b508091505092915050565b6114b881611769565b82525050565b6114c781611769565b82525050565b60006020820190506114e260008301846112fc565b92915050565b60006060820190508181036000830152611502818661130b565b905061151160208301856114be565b61151e60408301846114be565b949350505050565b6000604082019050818103600083015261154081856113e6565b905061154f602083018461139e565b9392505050565b600060208201905061156b60008301846114be565b92915050565b600060c08201905061158660008301896114be565b818103602083015261159881886113e6565b905081810360408301526115ac81876113e6565b90506115bb60608301866112ed565b6115c8608083018561138f565b6115d560a08301846114be565b979650505050505050565b6000604051905081810181811067ffffffffffffffff8211171561160357600080fd5b8060405250919050565b600067ffffffffffffffff82111561162457600080fd5b602082029050602081019050919050565b600067ffffffffffffffff82111561164c57600080fd5b602082029050602081019050919050565b600067ffffffffffffffff82111561167457600080fd5b601f19601f8301169050602081019050919050565b600067ffffffffffffffff8211156116a057600080fd5b601f19601f8301169050602081019050919050565b6000819050919050565b600060199050919050565b600081519050919050565b6000602082019050919050565b600081905092915050565b600082825260208201905092915050565b600082825260208201905092915050565b600061171a82611749565b9050919050565b600061172c82611749565b9050919050565b60008115159050919050565b6000819050919050565b600073ffffffffffffffffffffffffffffffffffffffff82169050919050565b6000819050919050565b82818337600083830152505050565b60005b838110156117a0578082015181840152602081019050611785565b838111156117af576000848401525b50505050565b6000601f19601f8301169050919050565b6117cf8161170f565b81146117da57600080fd5b50565b6117e68161173f565b81146117f157600080fd5b50565b6117fd81611769565b811461180857600080fd5b5056fea365627a7a723158201e55c6da573020d4790e503f43beeb581020416e5fe89a894dc9a609507a72256c6578706572696d656e74616cf564736f6c63430005100040",
  "source": "// SPDX-License-Identifier: MIT\npragma solidity >=0.4.21 <0.7.0;\npragma experimental ABIEncoderV2;\n\ncontract RealEstateMarket {\n\n  struct Document {\n    string identifier;\n    bytes32 integrity;\n  }\n  \n  struct Property {\n    uint price;\n    string location;\n    string description;\n    address payable ownerAddress;\n    bool forSale;\n    uint createdAt;\n  }\n\n  address public owner;\n\n  Property [] public properties;\n  Document[] public documents;\n  \n  mapping (address => uint[]) public ownerToProperties;\n  mapping (uint => uint[]) public propertyToDocuments;\n  \n  uint public propertiesForSale;\n\n  constructor () public {\n    owner = msg.sender;\n    propertiesForSale = 0;\n  }\n\n  function time() view internal returns (uint){\n      return now;\n  }\n\n  function addProperty (\n    uint _price, \n    string memory _location,\n    string memory _description,\n    string[] memory _documentIds,\n    bytes32[] memory _documentHashes\n    ) public {\n\n      require(_documentIds.length == _documentHashes.length);\n\n      properties.push(\n        Property(\n          _price, \n          _location, \n          _description, \n          msg.sender, \n          true,\n          time()\n        )\n      );\n      \n      uint propertyId = properties.length - 1;\n      ownerToProperties[msg.sender].push(propertyId);\n\n      for (uint i=0; i< _documentIds.length; i++) {\n        documents.push(\n          Document(_documentIds[i], _documentHashes[i])\n        );\n        propertyToDocuments[propertyId].push(documents.length - 1);\n      }\n  }\n  \n  function buyProperty (uint _id) public payable {\n\n    require(_id < properties.length);\n\n    for (uint i = 0; i < ownerToProperties[msg.sender].length; i ++){\n      require(ownerToProperties[msg.sender][i] != _id);\n    }\n\n    Property storage _p = properties[_id];\n\n    require(_p.forSale == true);\n\n    require(msg.value == _p.price);\n\n    _p.ownerAddress.transfer(msg.value);\n\n    for (uint i = 0; i < ownerToProperties[_p.ownerAddress].length; i ++){\n      if (ownerToProperties[_p.ownerAddress][i] == _id){\n        delete ownerToProperties[_p.ownerAddress][i];\n      }\n    }\n\n    _p.ownerAddress = msg.sender;\n    _p.forSale = false;\n\n    ownerToProperties[msg.sender].push(_id);\n  }\n\n  uint constant itemsPerPage = 25;\n\n  function paginateProperties (uint _page) external view \n    returns (Property[itemsPerPage] memory items, uint itemsCount, uint itemsTotal) {\n    \n    Property[itemsPerPage] memory _items;\n\n    uint _itemsCount = 0;\n\n    for (uint i = _page * itemsPerPage; i < itemsPerPage + (_page * itemsPerPage); i ++){\n      if (i < properties.length){\n        _items[_itemsCount] = properties[i];\n        _itemsCount++;\n      }\n    }\n\n    return (_items, _itemsCount, properties.length);\n  }\n}\n",
  "sourcePath": "E:/dev/ZizouNCo/contracts/RealEstateMarket.sol",
  "compiler": {
    "name": "solc",
    "version": "0.5.16+commit.9c3226ce.Emscripten.clang"
  },
  "schemaVersion": "3.3.2",
  "updatedAt": "2020-12-09T14:10:49.892Z",
  "networkType": "ethereum",
  "devdoc": {
    "methods": {}
  },
  "userdoc": {
    "methods": {}
  }
}